:020000040800F2
:1000000010210020650200086F29000887230008DE
:100010006D29000875060008712F00080000000017
:10002000000000000000000000000000292C000873
:100030002907000800000000ED2A00082B2C00080A
:100040007F0200087F0200087F0200087F0200088C
:100050007F0200087F0200087F0200087F0200087C
:100060007F0200087F0200087F0200087F0200086C
:100070007F0200087F0200087F0200087F0200085C
:100080007F0200087F0200087F0200087F0200084C
:100090007F0200087F0200087F0200087F0200083C
:1000A0007F020008092E00087F0200087F02000876
:1000B0007F0200087F0200087F0200087F0200081C
:1000C0007F0200087F0200087F0200087F0200080C
:1000D0007F0200087F0200087F0200087F020008FC
:1000E0007F0200087F0200087F0200087F020008EC
:1000F0007F0200087F0200087F0200087F020008DC
:100100007F0200087F0200087F0200087F020008CB
:100110007F0200087F0200087F0200087F020008BB
:10012000790600087F0200087F0200087F020008AD
:100130007F02000800000000000000007F020008AD
:100140007F0200087F0200087F0200087F0200088B
:100150007F0200087F0200087F0200087F0200087B
:100160007F0200087F0200087F0200087F0200086B
:100170007F0200087F0200087F02000800000000E4
:10018000000000007F0200080000000000000000E6
:100190007F02000800000000000000007F0200084D
:1001A0000000000000000000000000007F020008C6
:1001B0007F0200087F0200087F0200087F0200081B
:1001C0007F02000800F002F800F03CF80AA090E876
:1001D000000C82448344AAF10107DA4501D100F002
:1001E00031F8AFF2090EBAE80F0013F0010F18BF93
:1001F000FB1A43F001031847C0300000E030000054
:10020000103A24BF78C878C1FAD8520724BF30C842
:1002100030C144BF04680C60704700000023002414
:1002200000250026103A28BF78C1FBD8520728BF06
:1002300030C148BF0B6070471FB503F026F81FBDE3
:1002400010B510BD00F006F91146FFF7F5FF02F0FA
:1002500003FF00F024F903B4FFF7F2FF03BC00F042
:1002600027F900000948804709480047FEE7FEE7F4
:10027000FEE7FEE7FEE7FEE7FEE7FEE7FEE7FEE756
:1002800004480549054A064B70470000C52C000884
:10029000C5010008101B002010210020101D0020A7
:1002A000101D002053EA020C00F069802DE9F04B8C
:1002B0004FF00006002B1FBFB3FA83F503FA05F4D5
:1002C00024FA05F65E4012BF1643B2FA82F502FA2E
:1002D00005F4C5F120051EBF22FA05FC44EA0C0412
:1002E000203556EA044C4FEA144418BF641C4FF002
:1002F00000084FF00009904271EB030C39D300293C
:1003000019BFB1FA81F701FA07F6B0FA80F700FADF
:1003100007F6C7F120071EBF20FA07FC46EA0C06C5
:100320002037B6FBF4FCA7EB0507103F07F01F0BC7
:10033000CBF120060CFA0BFB2CFA06F644BFB346B1
:100340000026202FA4BF5E464FF0000B5BEA060C90
:1003500008BF4FF0010B19EB0B09ABFB027C48EB1C
:100360000608C01B06FB02CC0BFB03CC71EB0C0197
:10037000C1E70B46024641464846BDE8F08B13B53F
:100380004FF000004FF00001AFF30080BDE81C40CB
:10039000704710B5203AC0F00B80B1E81850203AF1
:1003A000A0E81850B1E81850A0E81850BFF4F5AF15
:1003B0005FEA027C24BFB1E81850A0E8185044BF9F
:1003C00018C918C0BDE810405FEA827C24BF51F80C
:1003D000043B40F8043B08BF7047D20728BF31F800
:1003E000023B48BF11F8012B28BF20F8023B48BF51
:1003F00000F8012B70474FF0000200B513469446F9
:100400009646203922BFA0E80C50A0E80C50B1F16C
:100410002001BFF4F7AF090728BFA0E80C5048BF80
:100420000CC05DF804EB890028BF40F8042B08BF1E
:10043000704748BF20F8022B11F0804F18BF00F81A
:10044000012B7047704770477047000000487047A5
:10045000B01A00207546FFF7F9FFAE460500694661
:10046000534620F00700854618B020B5FFF708FF77
:10047000BDE820404FF000064FF000074FF00008A5
:100480004FF0000B21F00701AC46ACE8C009ACE826
:10049000C009ACE8C009ACE8C0098D46704710B58A
:1004A0000446AFF300802046BDE81040FFF7D3BEFE
:1004B00001491820ABBEFEE726000200704710B5C8
:1004C0000146806B026C12F0500F05D0026CD20610
:1004D00026D500F0E1F910BD016C41F40071016412
:1004E00001688A6812F0405F17D1027EAAB9CA6A11
:1004F00012F4700F02D08A6852050ED44A6822F0B6
:1005000020024A60016C21F480710164016CC9040D
:1005100003D4016C41F00101016400F0BBF910BD8E
:10052000806BC26CBDE810400846104710B5806B68
:1005300040210164416C41F00401416400F0ACF9D8
:1005400010BD10B5806B00F0A6F910BD464910B57E
:100550004A6822F440324A604A6843681A434A6053
:1005600001684A6822F480724A6001684A68036937
:1005700042EA03224A6001684A6822F040724A60F7
:1005800001684A6883681A434A6001688A6822F4ED
:1005900000628A6001688A68C3681A438A60816A57
:1005A0006FF07062D14201688A6822F070628A60DE
:1005B00001688A680CD0836A1A438A6001688A6875
:1005C00022F040528A6001688A68C36A1A4301E0D7
:1005D00022F040528A6001688A6822F002028A6032
:1005E00001688A68037E42EA43028A6090F820101C
:1005F000002901684A680FD042F400624A6001682D
:100600004A6822F460424A6001684A68174C436AAB
:1006100004EB43331A4301E022F400624A600168AC
:10062000CA6A22F47002CA620168CA6A838B104CDB
:1006300004EB03531A43CA6201688A6822F4007209
:100640008A6001688A6890F8303042EA43228A6002
:1006500001688A6822F480628A6001688A68406959
:1006600042EA8020886010BD0023014000E0FFFFC7
:100670000000F0FFFEE70000014800F097BA00001C
:10068000501A002001681823CAB2103AB2FBF3F2E4
:10069000054B6FF30901032A9B5CC36500D9091D53
:1006A00081650846704700009E32000810B501467B
:1006B00000208B698A6A4FF0C07453B1B3F5005FB4
:1006C00015D072B1012A0CD0022A0AD0032A09D10E
:1006D00004E01AB1012A06D0022A03D1C96AC9016D
:1006E00000D5012010BDC96AA142FAD010BD002A70
:1006F000F7D0012AF2D0022AF3D0032AF3D010BD9A
:1007000030B50468256825F4802525600468636099
:100710008368402B036803D099600068C26030BDD5
:100720009A600068C16030BD704772B6FEE7000095
:1007300078B50024009490F83C20012A19D00122B9
:1007400080F83C200A6807230568092A13D9EE6857
:100750000A3A02EB420293409E43EE600B788A68AD
:100760000A3B03EB43039A400368DD682A43DA60DF
:1007700010E0022078BD2E6902EB420293409E43B6
:100780002E610B788A6803EB43039A4003681D6966
:100790002A431A614A681F23072A13D205686E6B21
:1007A000521E02EB820293409E436E630A8893B20C
:1007B0000A79521E02EB820293400268556B2B436A
:1007C000536327E005680D2A12D22E6BD21F02EB6D
:1007D000820293409E432E630B790A88DB1F92B2FC
:1007E00003EB83039A4003681D6B2A431A6311E0ED
:1007F000EE6A0D3A02EB820293409E43EE620B7961
:100800000A880D3B92B203EB83039A400368DD6ACA
:100810002A43DA621B4B0568194A9D420AD10D68CA
:10082000122D07D1556825F400055560556845F42B
:100830008005556005689D421DD1134D0B68AB4284
:1008400001D0112B17D1536823F4800353605368F0
:1008500043F4000353600968A9420CD10B490C4AC8
:100860000968B1FBF2F101EB8101490000E0491E8A
:1008700000910029FBD180F83C40002078BD0000A9
:1008800000230140002001401200001068000020F9
:1008900040420F0070477047704770B504004FF03A
:1008A000000503D0206C002610B107E0012070BDC8
:1008B000204600F01DF8666484F83C60206CC00699
:1008C00010D4206C20F4885040F0020020642046B0
:1008D000FFF73CFE6664206C20F0020040F001004F
:1008E000206400E0012584F83C60284670BD0000CB
:1008F00070B586B0064614216846FFF77CFD1D4999
:100900003068884234D11C480025016841F4807168
:100910000160006800F48070059017481438016881
:1009200041F0010101600068694600F00100059096
:10093000012000900320CDE90105104800F0BAFA2B
:10094000104C0F48C4E900050015A560C4E9035028
:10095000800060618000C4E90605C000C4E90805A4
:10096000204600F0F3F908B1FFF7DFFEB463A66399
:1009700006B070BD00200140443802400000024033
:1009800010640240501A0020F8B5044600200E46BC
:10099000009094F83C10012907D0012184F83C1004
:1009A00021688B68DB0702D011E00220F8BD8B685C
:1009B00043F001038B604049404B0968B1FBF3F100
:1009C00001EB410100E0491E00910029FBD12168A3
:1009D0008B68DB0503D58B6823F480738B602168FB
:1009E0008B68DB075DD0236C40F20165AB4343F4B9
:1009F000807323644968490505D5216C21F40051B1
:100A000041F480512164216CC90404D5616C21F04A
:100A10000601616400E0606484F83C00A16B294831
:100A2000274DC863A16B28480864A16B2748C86498
:100A300021686FF0220008602068416841F0806101
:100A400041602068816841F48071816021681346AB
:100A500032464C31A06B00F0E3F968681C49C006CF
:100A6000206806D0884224D1816811F0405F13D0FD
:100A70001FE08842F8D0174A904203D1D1F80423EE
:100A8000D206F1D0144A904213D1D1F8041301F0E8
:100A90001F011029E8D30CE0816841F0804181609A
:100AA00007E0206C40F010002064606C40F0010012
:100AB00060640020F8BD00006800002040420F0084
:100AC00000230140BF040008430500082D0500086D
:100AD00000200140002101400022014070B543790F
:100AE000012B1CD0012646710223037105682B6877
:100AF00002F0100440F6FE72A2409343D1E90021B7
:100B00000A43A2401A432A6001680A68C023A3402E
:100B10009A430A60067100214171084670BD0220A7
:100B200070BD70B5040003D02079002510B105E038
:100B3000012070BD6571204600F008F80220207188
:100B4000256101202071002070BD000010B586B025
:100B5000044614216846FFF74EFC1149206888427C
:100B60001CD110480021026842F000520260006867
:100B700000F0005005900B481038026842F0010266
:100B80000260006800F00100059010200090032032
:100B9000CDE901016946044800F08CF906B010BDAA
:100BA0000074004040380240000002402DE9F84344
:100BB00004464FF00009CDF8009063484FF41651F9
:100BC000A56D0068B0FBF1F72E6894F85C10082062
:100BD00000FA01F131420FD021680A6852070BD5A3
:100BE0000A6822F004020A6094F85C108840A86049
:100BF000606D40F00100606594F85C104FF00108F2
:100C000008FA01F0304208D021684969090604D584
:100C1000A860606D40F00200606594F85C100420EC
:100C20008840304208D021680968890704D5A86047
:100C3000606D40F00400606594F85C1010208840FE
:100C4000304218D021680968090714D5A8602068C7
:100C50000168490304D50068000308D5A16C07E0CA
:100C60000168C90503D4016821F008010160216C05
:100C700009B12046884794F85C1020208840304213
:100C800031D021680968C9062DD5A86094F83500CF
:100C900005282068016806D0490347D5006800038D
:100CA0001DD4616C1CE021F01601016020684169CF
:100CB00021F080014161206C08B9A06C20B120684E
:100CC000016821F00801016094F85C103F20884021
:100CD000A86084F8358084F83490216D1FE0E16BC2
:100CE00009B120468847606D00282BD0606DC00791
:100CF00014D0052084F835002068016821F0010136
:100D000001600098401C0090B84203D82068006839
:100D1000C007F6D184F8358084F83490E16C00295E
:100D200010D001B02046BDE8F04308470168C9056E
:100D3000D5D4016821F01001016084F8358084F871
:100D40003490CCE7BDE8F883680000202DE9F0413D
:100D5000044600F0A3F906465CB1022084F8350091
:100D6000002584F834502068016821F001010160F9
:100D70000DE00120BDE8F08100F090F9801B05280E
:100D800005D920206065032084F83500F2E720684B
:100D90000068C007F0D12268116820480140D4E9FA
:100DA00001031843D4E903363343184363691843F6
:100DB000A3691843E3691843236A18430843616A27
:100DC000042903D1D4E90B131943084310602068A8
:100DD0004069666A20F0070130460E430127042867
:100DE0000CD1A06A0643E06A40B12046FFF75EFCE2
:100DF00020B14020606584F83570BAE7206846610C
:100E00002046FFF73FFC94F85C203F219140816031
:100E1000656584F835700020ACE700003F8010F075
:100E20002DE9F0410446866D90F834000025012834
:100E30000DD0012084F8340094F835700020012F83
:100E400007D084F8340002252846BDE8F08102204E
:100E5000FBE7022784F8357060652046FFF750FCF9
:100E600094F85C103F208840B0602068016841F031
:100E700016010160206C20B12068016841F0080172
:100E800001602068016841F001010160DCE70000B9
:100E900070B5044600F002F90546601C02D0044813
:100EA0000078044400F0FAF8401BA042FAD370BD69
:100EB0005C0000202DE9F84FDFF8ACA100220124EE
:100EC00003254FF00F090AF1040BAAF1040E00BF2D
:100ED0000B6804FA02F63340B3426ED10F7907F083
:100EE0000307012F01D0022F16D187684FEA42086D
:100EF00005FA08FC27EA0C07D1F80CC00CFA08FC2C
:100F00004CEA070CC0F808C04768B7430E79C6F32F
:100F1000001696403E4346600E79F643B6070AD067
:100F2000C6684FEA420C05FA0CF7BE438F6807FA11
:100F30000CF73743C7600E7906F00306022E10D176
:100F4000D60800EB8608D8F8206057074FEAD76C20
:100F500009FA0CF7BE430F6907FA0CF73743C8F8D4
:100F6000207006684FEA420C05FA0CF7BE430F7971
:100F700007F0030707FA0CF7374307604E6816F4CB
:100F8000403F6BD0394E376847F48047376036684A
:100F900022F0030706F480460096354E07EB060C58
:100FA000DCF8086897074FEA177809FA08F7BE4394
:100FB000304FB84202D100271FE04FE02E4FB84219
:100FC00001D1012719E02D4FB84201D1022714E0C9
:100FD0002B4FB84201D103270FE02A4FB84201D16D
:100FE00004270AE0284FB84201D1052705E0274F22
:100FF000B84201D1062700E0072707FA08F7374370
:10100000CCF80878DAF800605746D1F804C09E435F
:101010005FEACC2C00D51E433E60DBF800605F46E3
:10102000D1F804C09E435FEA8C2C00D51E433E607D
:10103000DEF800607746D1F804C09E435FEA8C3C3E
:1010400000D51E433E60084F083F3E68D1F804C0FB
:101050009E435FEACC3C00D51E433E60521C102AE2
:10106000FFF436AFBDE8F88F083C01404438024039
:10107000003001400000024000040240000802402D
:10108000000C024000100240001402400018024010
:101090000AB1816170470904FBE7000001488068DC
:1010A000704700005C00002002488168027811440B
:1010B000816070475C0000200B4810B5016841F466
:1010C00000710160016841F480610160016841F4D0
:1010D00080710160032000F071F8002000F006F834
:1010E00000F024F8002010BD003C024070B50D4D0A
:1010F00004464FF47A712878B1FBF0F00A49096888
:10110000B1FBF0F000F08DFE48B9102C07D20022A0
:101110002146501E00F032F800206C6070BD0120A6
:1011200070BD00005C000020680000200B4882B009
:10113000016841F480410160006800F48040009043
:101140000648001F016841F080510160006800F00E
:1011500080500090072002B000F030B844380240C0
:10116000002809DB00F01F020121914040098000A6
:1011700000F1E020C0F8001170470000F0B40E4B01
:101180001B680C46C3F30223C3F10705042D00D9E5
:101190000425191D072901D2002300E0DB1E0126CA
:1011A00006FA05F1491E214099409E40761E1640E0
:1011B0003143F0BC01F0DDBE0CED00E0064900F06B
:1011C000070208684FF6FF03184040EA0220034A6E
:1011D00010430860704700000CED00E00000FA05C5
:1011E0002DE9F84F044600260078F84D3746C00731
:1011F00008D02868A16B20F0C06008432860A06B6D
:1012000000B901262078800708D52868E16B20F016
:10121000C05008432860E06B00B9012620784007E1
:101220000ED52868216B20F4401008432860206BFD
:10123000B0F5801F01D010B102E0012600E00127C7
:10124000207800070ED52868616B20F44000084321
:101250002860606BB0F5800F01D010B102E001266C
:1012600000E0012720784FF0000A80064FF0010BC4
:1012700063D5D6484C38016841F080510160006860
:10128000DFF84C9300F080500090D9F8001041F442
:101290008071C9F80010FFF701FF804606E000BF2B
:1012A000FFF7FCFEA0EB080002286FD8D9F8000079
:1012B000C005F5D5DFF81483A8F11C08D8F80000A4
:1012C00010F4407024D0B4F8401001F44071814211
:1012D0001ED0D8F80010BF4A21F44071C2F800B007
:1012E000C2F800A0C8F80010D8F80000C0070FD05E
:1012F000FFF7D4FE814607E0FFF7D0FEA0EB09011F
:1013000041F288308142D0D8D8F800008007F3D568
:10131000216CAE48C1F301228438032A37D001681A
:1013200021F4F811C0F80010D8F80010B4F84020EB
:10133000C2F30B021143C8F800102078C00604D590
:10134000A54894F85810C0F8E01120780106A34889
:1013500005D50168E26C21F4400111430160217858
:10136000490605D50168A26C21F080611143016036
:101370002188C90514D50168626D21F0006111430F
:101380000160616DB1F1006F09D009E01DE10268F3
:10139000934B22F4F81219400A430260C4E7012774
:1013A0002188890505D50168626C21F080511143BF
:1013B00001602188DFF82C92490509D50168226D6A
:1013C00021F0005111430160206DB0F1005F04D0A5
:1013D0001EB92068B0F5006F7ED18349C1F868A0BE
:1013E000FFF75CFE794E80468C3E05E0FFF756FE27
:1013F000A0EB0800022886D830680001F6D42168E6
:101400007A48CA0701D0A26B1AB1890717D5E16BD8
:10141000A9B901680268C1F30141491CD4E9013C42
:1014200043EA8C1321F0004CC2F3036209EB0C4138
:1014300041EA02610B43217D43EA017101602168A9
:101440004A0703D5226BB2F5801F05D0090721D5C5
:10145000616BB1F5800F1DD101680268C1F30141D4
:10146000491CD4E9013C43EA8C1321F0004C09EB00
:101470000C4194F810C0C2F3027241EA0C610B43B4
:1014800043EA027101602968A26A21F01F01521E1D
:1014900011432960218849051AD5216DB1F1005FFA
:1014A00016D101680268C1F30141491CD4E9013C2D
:1014B00043EA8C13D4F80CC0C2F302724FEA5C0802
:1014C00009EB084C4CEA41610B4343EA02710160AD
:1014D0002188090511D500E01FE0D4E9011241EA95
:1014E0008211E268530809EB0342237C42EA03625B
:1014F0001143227D41EA027101603B49C1F868B0A5
:10150000FFF7CCFD804605E0FFF7C8FDA0EB080023
:10151000022874D830680001F6D5EFB3DFF8C88030
:10152000C8F870A0FFF7BAFD304E0746843E04E0CD
:10153000FFF7B4FDC01B022861D83068C0438000AB
:10154000F6D521682A484A0701D5226B1AB1090746
:101550001DD5616BD9B90168D4E90623C1F30141F6
:10156000491C42EA831221F0004309EB034194F83D
:10157000243041EA03610A4302602968E26A6FF09D
:10158000FF0321F4F85103EB022211432960218863
:10159000C90514D5616D00E038E0B1F1006F0ED1DE
:1015A0000168D4E9062342EA8312236AC1F3036186
:1015B0005C0809EB044343EA01610A430260C8F88E
:1015C00070B0FFF76BFD04461CE018E08C38024059
:1015D00000700040400E47420010474294380240DD
:1015E000FFFCFF0F0000FFFF00004742843802406D
:1015F00088380240FFF752FD001B022802D9032061
:10160000BDE8F88F3068C0438000F3D40020F7E7CE
:101610002DE9F0470E46050065D0DFF81481D8F8B3
:101620000000F7B200F00F00B04207D288F8007057
:10163000D8F8000000F00F00B04254D128683D4CAB
:10164000810712D5400703D5206840F4E0502060A0
:101650002878000703D5206840F4604020602068A7
:10166000A96820F0F000084320602878C0072DD03A
:10167000304968680839012812D0022813D003289D
:1016800011D00968890700292DDA216821F00301AA
:1016900001432160FFF702FD814641F2883A0EE0E6
:1016A00009688903EFE709688901ECE7FFF7F6FCB1
:1016B000A0EB0901514502D90320BDE8F08720685D
:1016C000696800F00C00B0EB810FEFD1D8F8001082
:1016D000404601F00F01B14207D90770006800F0E1
:1016E0000F00B04201D00120E7E72878400705D578
:1016F0002068E96820F4E05008432060287800075B
:1017000006D52068296920F4604040EAC1002060C5
:1017100000F018F82168084AC1F30311515CC84071
:101720000649086006480068FFF7E0FC0020C4E7AF
:10173000003C024008380240A63200086800002041
:1017400060000020224810B5006810F00C0221480B
:1017500015D04110042A11D01D4C241F082A0FD087
:101760000C2A0CD12268236802F03F025B0221D5CB
:101770002068C0F38810A0FB010120E0084610BDDE
:101780002268236802F03F025B0205D52068C0F39F
:101790008810A0FB010104E02168C1F38811A1FBBE
:1017A00000010023FEF77EFD2168C1F30141491CC1
:1017B00049000AE02168C1F38811A1FB0001002360
:1017C000FEF770FD2168C1F30271B0FBF1F010BDAE
:1017D000083802400024F4002DE9F84F04007DD0C1
:1017E000DFF878B32078ABF10407C007A7F1040550
:1017F00050D0DBF800105846C1F3810101290FD009
:101800000168C1F38101022902D13968490207D474
:101810000068C0F38100032809D13868400206D56A
:101820002868800336D560680028D8D032E0606828
:10183000B0F5803F10D0B0F5A02F286810D020F46C
:1018400080302860286820F4802028606068A0B17B
:10185000FFF724FC06460CE0286840F48030F4E7EB
:1018600040F480202860F7E7FFF718FC801B64280D
:1018700076D828688003F7D50CE0FFF70FFC064602
:1018800005E000BFFFF70AFC801B6428F0D8286839
:101890008003F7D42078DFF8C89280074FF0000A61
:1018A00044D5DBF80010584611F00C0F0FD001683A
:1018B000C1F38101022902D13968490207D50068C4
:1018C000C0F3810003280AD13868400207D4286891
:1018D000800715D5E068012800D111E03AE1E06801
:1018E000B0B10120C9F80000FFF7D8FB064604E0BC
:1018F000FFF7D4FB801B0228BAD828688007F7D5E9
:101900002868216920F0F80040EAC10028600DE055
:10191000C9F800A0FFF7C2FB064604E0FFF7BEFBD4
:10192000801B02281CD828688007F7D4207800077D
:1019300027D5DFF828828B48616908F16C0881B1EE
:1019400001210160FFF7AAFB064604E0FFF7A6FBB2
:10195000801B022804D8D8F800008007F6D510E0D4
:1019600089E0C0F800A0FFF799FB064605E000BF3C
:10197000FFF794FB801B02287DD8D8F80000800771
:10198000F6D42078400769D574484FF00008383005
:101990000068C0000BD471483830016841F08051B4
:1019A000016000684FF0010800F0805000906E4E1A
:1019B0003068C00511D4306840F480703060FFF7A3
:1019C0006DFB009006E000BFFFF768FB0099401A2E
:1019D000022850D83068C005F6D5604EA068683639
:1019E00001280FD00528306810D020F001003060A9
:1019F000306820F004003060A068B8B1FFF74EFBFB
:101A000000900FE0306840F00100F4E740F004007F
:101A10003060F7E7FFF742FB0099411A41F2883046
:101A2000814264D830688007F4D50EE0FFF736FBBA
:101A3000009007E0FFF732FB0099411A41F288302D
:101A4000814254D830688007F4D4B8F1000F05D033
:101A500042483830016821F080510160A069A8B384
:101A6000DBF80010C1F38101022947D00228C9F830
:101A700060A005D000E03AE0FFF710FB044639E033
:101A8000FFF70CFB064604E0FFF708FB801B02286B
:101A90002DD828688001F7D4F4E907010843E168EC
:101AA000324A490802EB0141A26841EA8211084327
:101AB000217C40EA0160217D40EA0170386001200C
:101AC000C9F86000FFF7EAFA044606E044E000BF08
:101AD000FFF7E4FA001B022809D828688001F7D52F
:101AE0003AE000BFFFF7DAFA001B022802D9032010
:101AF000BDE8F88F28688001F4D42DE00128F7D0E4
:101B00003868E26900F48001914223D1226A00F032
:101B10003F0191421ED147F6C071626A0140B1EBAC
:101B2000821F17D1A26A4FF0FF3300F4403103EB5C
:101B30005202B1EB024F0DD194F82C2000F07061ED
:101B4000B1EB026F06D194F8301000F0E040B0EB3A
:101B5000017F01D00120CBE70020C9E7083802400F
:101B600000004742800E4742007000400000FFFF27
:101B700070B5040009D0606A002540B12561656137
:101B8000A56294F8510040B10CE0012070BD60687E
:101B9000B0F5827FF4D0E561F2E784F8505020463A
:101BA00000F044F8022084F851002068016821F018
:101BB00040010160A088218900F4827001F4044191
:101BC0000843A18901F400610843217C01F002016E
:101BD0000843217D01F001010843218B01F40071CC
:101BE0000843217F01F03801084394F8201001F0E8
:101BF00080010843218D01F40051084321680860E9
:101C0000A069042101EA104094F8241001F01001A9
:101C10000843216848602068C16921F40061C161FE
:101C20006565012084F85100002070BDF0B587B0D3
:101C3000044614216846FEF7DEFB1C4920688842F2
:101C400032D11B480024016841F4805101600068D2
:101C500000F48050059016481438016841F00101E5
:101C60000160016801F001010591016841F0020184
:101C700001600068022500F002000590C020CDE957
:101C8000000502AA0326052782E8D0006946094814
:101C9000FFF710F90820CDE9000502AA694682E89D
:101CA000D0000548FFF706F907B0F0BD003001404D
:101CB0004438024000000240000402402DE9F84F81
:101CC000044690F8500000271D4616468946012814
:101CD0000DD04FF0010B84F850B0FFF7DFF98046CC
:101CE00094F85100BA46012804D0022793E002205C
:101CF000BDE8F88FB9F1000F73D0002E71D003202A
:101D000084F85100C4F854A0C4F83090A686E68642
:101D1000C4F838A0A4F83CA0A4F83EA0C4F844A09D
:101D2000C4F840A0A068B0F5004F09D12068016850
:101D300021F0400101602068016841F480410160A8
:101D400020680168490603D4016841F04001016040
:101D5000E068B0F5006F606803D030B3012E24D086
:101D600041E008B1012E1CD1206B21680088C860B9
:101D700006E020688168890709D5216B0988C16060
:101D8000206B801C2063E08E401EE08609E0FFF798
:101D900085F9A0EB0800A84202D3681C01D031E00D
:101DA0007DB3E08E0028E4D120E0206B216800782C
:101DB000087306E020688168890709D5216B0978D6
:101DC0000173206B401C2063E08E401EE0860AE019
:101DD000FFF764F9A0EB0800A84203D3681C02D007
:101DE00010E017E06DB1E08E0028E3D142462946AD
:101DF000204600F091FE08B120206065A06818B16F
:101E000006E0FFE7032706E02068C16880680090CD
:101E1000606D00B1012784F851B084F850A03846B5
:101E200066E710B5401EB0F1807F01D3012010BDE0
:101E30004FF0E02460610F21601701F09AF8002054
:101E4000A06107202061002010BD7047704700008E
:101E500070B590F83C20012A32D0012480F83C4033
:101E6000022280F83D2003685A689D6822F07006BF
:101E70000A6832435A60134B02689A4214D0B2F196
:101E8000804F11D0104B9A420ED0104B9A420BD07B
:101E90000F4B9A4208D00F4B9A4205D00E4B9A42F4
:101EA00002D00E4B9A4204D1496825F080031943B1
:101EB000916080F83D40002180F83C10084670BDDC
:101EC000022070BD000001400004004000080040F6
:101ED000000C004000040140004001400018004098
:101EE00010B5040003D094F83D0010B107E00120C4
:101EF00010BD002084F83C00204600F01FF80220AE
:101F000084F83D00211D206800F08CFF012084F83A
:101F1000460084F83E0084F83F0084F8400084F8CE
:101F2000410084F8420084F8430084F8440084F8B7
:101F3000450084F83D00002010BD000008B5114A9E
:101F400001681148914208D1016841F00201016025
:101F5000006800F00200009008BD0C4A9142FBD1DD
:101F6000016841F4003101600068002200F4003093
:101F7000009011461920FFF701F9BDE8084019202B
:101F8000FFF7EEB80004014044380240004401402D
:101F900070B5044690F83C000025012817D00126B2
:101FA00084F83C60022084F83D002068826822F0BA
:101FB000770222F47F4282600868502838D00DDC16
:101FC00020284FD005DC90B3102811D14AE0022020
:101FD00070BD302846D040280AD13BE060282FD081
:101FE00070280DD0B0F5805F03D0B0F5005F12D03F
:101FF000012584F83D60002084F83C00284670BD2F
:10200000CB68D1E90121206800F07DFF206881685C
:1020100041F0770109E0CB68D1E90121206800F0A7
:1020200072FF2068816841F480418160E1E719E036
:10203000CA684968206800F078FF5021206806E0EF
:10204000CA684968206800F081FF6021206800F0BC
:1020500064FFCEE7CA684968206800F066FF402147
:102060002068F4E7226801461046F0E72DE9F041C8
:102070000D46040003D094F83D0018B108E001209B
:10208000BDE8F081002084F83C00204600F040F8D4
:10209000022084F83D002068816844F207029143E1
:1020A0008160211D206800F0BDFE22689068916962
:1020B000166A2B68AF69034340F20330814341EA5B
:1020C0000721A868EF6908434FF6FC418843E96897
:1020D00040EA0720014328692F6A000140EA0730DF
:1020E000084369686D6926F0AA0646EA0515294382
:1020F00093602268906154F8460B0162012004F855
:102100001F09E0752076E0762077A0750020B7E7FC
:1021100010B586B0044614216846FEF76CF91749DD
:102120002068884228D116480021026842F0010246
:102130000260006800F00100059011481438026840
:1021400042F001020260006800F0010005904FF4C7
:10215000407000900220CDE901010120CDE903107B
:1021600069460848FEF7A6FE002211461920FFF72F
:1021700005F81920FEF7F4FF06B010BD000001407D
:10218000443802400000024070B590F83E600446BA
:1021900090F83F5090F8423090F84320022021B14F
:1021A00004290ED0012E1BD114E0012E18D1012BD1
:1021B00016D184F83E0084F84200012200212068F4
:1021C00020E0012D0CD1012A0AD184F83F0084F8C7
:1021D000430014E0012D03D1012B01D1012A01D0CC
:1021E000012070BD84F83E0084F83F0084F842006E
:1021F00084F8430001220021206800F077FE0122CC
:102200000421206800F072FE2068016841F001019D
:102210000160002070BD704770B504460068016918
:102220004FF00005C943890715D4C168C943890720
:1022300011D4E91E016101202077206880698007A0
:10224000204602D0FFF7E7FF04E000F098F82046B0
:1022500000F096F8257720680169C943490717D42B
:10226000C168C943490713D46FF00401016102201A
:1022700020772068806910F4407F204602D0FFF765
:10228000CAFF04E000F07BF8204600F079F82577DB
:1022900020680169C943090716D4C168C943090701
:1022A00012D46FF008010161042020772068C06912
:1022B0008007204602D0FFF7AEFF04E000F05FF891
:1022C000204600F05DF8257720680169C943C906FA
:1022D00017D4C168C943C90613D46FF01001016156
:1022E000082020772068C06910F4407F204602D083
:1022F000FFF791FF04E000F042F8204600F040F8BC
:10230000257720680169C943C90708D1C168C94355
:10231000C90704D1891E0161204600F032F8206807
:102320000169C943090609D4C168C943090605D42E
:102330006FF0800101612046FFF787FD2068016989
:10234000C943490609D4C168C943490605D46FF099
:1023500040010161204600F015F820680169C94379
:1023600089060BD4C168C943890607D46FF02001E0
:1023700001612046BDE87040FFF768BD70BD704741
:10238000704770477047FEE710B514460B4602468B
:1023900000F012F9200A00F0F1F8E0B2BDE81040B8
:1023A00000F0ECB870B5054610484FF4963440F292
:1023B0003F120178012906D0032904D0022905D053
:1023C000042903D007E01346EF2200E0EF230021A9
:1023D000084600F0F1F82E0A3046641E00F0CEF8F0
:1023E000E8B200F0CBF8002CF6D170BD0000002060
:1023F0002DE9F047884608A9154691E8C004014632
:10240000994658224C48FDF7C4FF4C4C404629469B
:10241000C4F820806580C4F82490A6800122FEF7CD
:1024200037FEA762A4F806A0012251463846FEF7FF
:102430002FFE012000F084F86420FEF729FD2820FB
:1024400000F07EF8C02000F07BF8262000F096F81F
:10245000C12000F075F8112000F090F8C52000F0C0
:102460006FF8352000F08AF83E2000F087F8C7208A
:1024700000F066F8BE2000F081F8362000F060F829
:10248000482000F07BF83A2000F05AF8552000F080
:1024900075F8B12000F054F8002000F06FF81F200C
:1024A00000F06CF82A2000F04BF8002000F066F8ED
:1024B000002000F063F8002000F060F8EF2000F04A
:1024C0005DF82B2000F03CF8002000F057F80020C9
:1024D00000F054F8012000F051F83F2000F04EF8D1
:1024E000342000F02DF8B72000F02AF8072000F083
:1024F00045F8B62000F024F80A2000F03FF88220CA
:1025000000F03CF8272000F039F8002000F036F801
:10251000112000F015F86420FEF7BAFC292000F025
:102520000FF86420FEF7B4FC2C2000F009F8BDE899
:10253000F0470520FEF7ACBC6C0000200000002036
:1025400038B50C4C8DF800000022A188606AFEF7B7
:102550009FFD00226188206AFEF79AFD0523012273
:1025600069460548FFF7AAFB01226188206AFEF749
:102570008FFD38BD000000206C00002038B50C4CE9
:102580008DF800000122A188606AFEF781FD00221B
:102590006188206AFEF77CFD052301226946054813
:1025A000FFF78CFB01226188206AFEF771FD38BDC0
:1025B000000000206C0000202DE9F04107461C4679
:1025C00015460E462A20FFF7BBFF380AFFF7D6FF55
:1025D000F8B2FFF7D3FF280AFFF7D0FFE8B2FFF702
:1025E000CDFF2B20FFF7ACFF300AFFF7C7FFF0B29B
:1025F000FFF7C4FF200AFFF7C1FFE0B2FFF7BEFFFD
:10260000BDE8F0412C20FFF79BBF08B50244521EE5
:10261000009312B20B4600F00AF808BD08B50A4450
:10262000521E009313B2024600F001F808BD2DE9D6
:10263000F05F0C4606461546191BA2EB060000D5B6
:102640004942002800DA4042814207DD30462646F2
:102650001D464FF001080446134601E04FF0000804
:10266000AE4205DD30462E46054620461C46034652
:10267000A81B0FFA80F9181B00D540420FFA80FB07
:1026800009EBD97047109C4201DA012001E04FF0BC
:10269000FF30824617E0B8F1000F02D0B1B2A0B20D
:1026A00001E0A1B2B0B20A9AFFF76EFEA7EB0B00F1
:1026B00007B2002F05DA04EB0A0004B207EB0900A9
:1026C00007B2761C36B2AE42E5DDBDE8F09F0000F1
:1026D00010B501221349012805D0022809D003288A
:1026E0000ED0042813D00A703620FFF729FF882067
:1026F00013E0022008703620FFF722FF28200CE0AC
:10270000032008703620FFF71BFF482005E0042057
:1027100008703620FFF714FFE820BDE81040FFF7EF
:102720002DBF0000000000207FB500241548009454
:10273000019402941249039401604FF44031C0E9BE
:10274000011401250461057680F820400E49C0E996
:102750000A14C561C46080F830404561FEF79DF8F9
:1027600008B172B6FEE7CDE9004569460548029416
:10277000FDF7DEFF002801D072B6FEE77FBD000046
:1027800000200140C41800200100000F2DE9F04393
:1027900087B014216846FDF72EFE2B4800240168FF
:1027A00041F080010160016801F08001059101683C
:1027B00041F001010160016801F00101059101682A
:1027C00041F004010160016801F004010591016814
:1027D00041F00201016000681C4F00F002004FF45C
:1027E00084650590002229463846FEF751FCDFF843
:1027F0006080002280214046FEF74AFCDFF85490BA
:10280000002240214846FEF743FC009502260125A0
:102810000396CDE9015469463846FEF74BFB80200C
:10282000CDE90005CDE9024669464046FEF742FB88
:102830004020CDE90005CDE9024669464846FEF74D
:1028400039FB07B0BDE8F083303802400000024099
:1028500000080240000402400E4810B50C49016017
:102860004FF48271416000218160C1604FF40072B9
:102870000161C0E90512C1610162416281620A2100
:10288000C162FFF775F9002801D072B6FEE710BDEE
:10289000003001402019002010B58CB0242168467A
:1028A000FDF7A9FD00241648099414490A94C0E9CB
:1028B00000144FF6FF71C0E9024104614461846174
:1028C0000120CDE90004CDE902040494CDE90540DE
:1028D000079469460A480894FFF7C8FB08B172B626
:1028E000FEE7099409A906480A94FFF7B1FA0028FF
:1028F00001D072B6FEE70CB010BD00000000014030
:102900007819002010B586B000241748009401946F
:1029100002940394049413490594C0E900147C21A3
:10292000C0E90241046144618461FFF7D9FA08B14A
:1029300072B6FEE74FF48050009069460A48FFF7F0
:1029400027FB08B172B6FEE72020CDE9040404A9F4
:102950000548FFF77DFA002801D072B6FEE706B001
:1029600010BD000000040140C0190020FEE7FEE792
:10297000F8B500251F4C4FF4806634E0B6FBF0F24A
:102980004FF4A070002300901946284600F0F4FB95
:1029900020620A2000902088D4ED0B0AC0F1640365
:1029A0001548FF22002130F8150000EE100AB8EE9D
:1029B000400A20EE200ABDEEC00A10EE100A00F018
:1029C000DBFB0F21E06103B20091208C02B2208D6D
:1029D00001B2A08C00B200F07DF9206A6062E0696B
:1029E0006D1CADB2A0626069B6FBF0F1A942C5D81A
:1029F000F8BD00002C000020C40000202DE9F843A1
:102A00002E4C00204FF00A086062CDF8008020882C
:102A10002B4FC0F16403D4ED0B0A3888FF2200EE7F
:102A2000100A0021B8EE400A20EE200ABDEEC00ACE
:102A300010EE100A00F0A0FB00254FF48066A062A3
:102A400035E000BFB6FBF0F24FF4A0700023009019
:102A50001946284600F090FB2062CDF800802088BF
:102A6000D4ED0B0AC0F1640337F81500FF2200EE25
:102A7000100A0021B8EE400A20EE200ABDEEC00A7E
:102A800010EE100A00F078FB4FF47841E06103B2D9
:102A90000091208C02B2208D01B2A08C00B200F017
:102AA00019F9206A6062E0696D1CADB2A0626069CC
:102AB000B6FBF0F1A942C5D8BDE8F8832C00002090
:102AC000C400002030B54FF480652946054800F069
:102AD000B3FA054C2946A080024800F09DFAE08038
:102AE00030BD0000C40000202C000020704700B55D
:102AF00097B05C216846FDF77EFC10200090012015
:102B00008DF858006846FEF76BFB002801D072B6BE
:102B1000FEE717B000BD000038B504461248134B5D
:102B20000068B0FBF3F04FF47A735843009060688C
:102B3000B0F5827F0DD10B46009200228021204605
:102B400000F016F870B1606D40F020006065032061
:102B500038BD009830B1401E009020688068C043A6
:102B60000006F6D5002038BD6800002000366E0152
:102B70002DE9F8431E46914688460446089DFEF717
:102B80008DFA401B351AFEF789FA0746254800687A
:102B9000C0F3CB30684338E0701C37D0FEF77EFAC4
:102BA000C01BA84203D215B1009860B32CE0206886
:102BB000416821F0E00141606068B0F5827F0BD18F
:102BC000A068B0F5004F02D0B0F5806F04D1206846
:102BD000016821F040010160A06AB0F5005F09D1F1
:102BE0002068016821F4005101602068016841F407
:102BF00000510160012084F85100002084F8500049
:102C00000320BDE8F8830025401E009020688168FD
:102C100038EA010004D000214945BDD10020F0E789
:102C20000121F9E7680000207047FEF73DBA000077
:102C300030B593B034216846FDF7DDFB14210DA8B3
:102C4000FDF7D9FB1D480025016841F08051016066
:102C5000006800F0805012901948016821F440414A
:102C600041F4804101600068022400F44040129069
:102C700001200090000401908001CDE9064004206D
:102C800008905020CDE909040B9468460C94FEF797
:102C9000A3FD08B172B6FEE70DA90F2081E831004F
:102CA0004FF48050CDE9100502210DA8FEF7B0FCCD
:102CB000002801D072B6FEE713B030BD40380240A4
:102CC000007000400248016841F4700101607047E3
:102CD00088ED00E02DE9FC5F05469046A2EB050972
:102CE000DDF830A09C460C46A0EB0802A84502DDAA
:102CF0000FFA89F700E017B2ACEB0401A4EB0C006B
:102D0000A44501DD0EB200E006B24FF0FF3BA8453E
:102D100002DD0123009301E0CDF800B0A44501DD00
:102D20004FF0010B644512D1A84506DD09F1010001
:102D300002B253462146284604E0521C12B25346C2
:102D40002146404602B0BDE8F05FFFF75EBC454556
:102D500010D1A44504DD491C0AB25346214603E0C4
:102D6000401C02B25346614602B02846BDE8F05FFF
:102D7000FFF754BCB74223DD78420FFA80F8019088
:102D8000002018E0A1B2A8B25246FFF7FDFA009861
:102D9000284405B208EB460000B25FEA000807D4F9
:102DA00004EB0B0004B2019808EB40000FFA80F826
:102DB00009F1010000B28146B842E3DDBDE8FC9FA5
:102DC00070420FFA80F80190002018E0A1B2A8B27A
:102DD0005246FFF7D9FA04EB0B0004B208EB4700A8
:102DE00000B25FEA000807D40098284405B20198B1
:102DF00008EB40000FFA80F809F1010000B28146AB
:102E0000B042E3DDDAE7000010B50448FFF704FA4A
:102E1000BDE810400248FFF7FFB900007819002014
:102E2000081A0020F0B50268254C264D264E274F83
:102E3000274B4FF0804CA04209D0604507D0A842F4
:102E400005D0B04203D0B84201D0984204D122F05C
:102E5000700E4A6842EA0E02A0421BD0604519D0AB
:102E6000A84217D0B04215D0B84213D0984211D022
:102E7000184DA8420ED0184DA8420BD0174DA842AD
:102E800008D0174DA84205D0164DA84202D0164DC5
:102E9000A84203D122F44075CA682A434D6922F042
:102EA00080022A4302608A68C2620A688262A04283
:102EB00001D0984201D10969016301214161F0BD4E
:102EC000000001400004004000080040000C0040E9
:102ED000000401400040014000440140004801401E
:102EE00000180040001C00400020004010B501F018
:102EF0001F030121046A99408C430462016A9A40CD
:102F00001143016210BD10B5846842EA032224F423
:102F10007F440A432243826010BD826822F070021F
:102F20000A4342F007018160704710B5036A046AE2
:102F300024F001040462846924F0F00444EA0214D9
:102F400023F00A020A438461026210BD10B5036ACD
:102F500023F0100303628369046A23F4704343EA95
:102F6000023224F0A00343EA01118261016210BD24
:102F7000FEE70907090E002804DB00F1E02080F8D5
:102F80000014704700F00F0000F1E02080F8141DDD
:102F90007047000010B50A494FF48064224601F5DD
:102FA0008050FDF7F1FC06490020A1F5006200BF4A
:102FB00031F8203022F81030401CA042F8DB10BD60
:102FC000C408002012480068406A401EC0F34E004A
:102FD000C0F50040B0F5804F01DDA0F500400D497F
:102FE0008A68904201D1C86801E08860C860012801
:102FF00001DA0120C8604FF47A72504388610A698F
:1030000000EB800092024000B2FBF0F04861704794
:10301000781900202C00002010B5034600880122FA
:1030200006E000BF33F81240844200D92046521C0B
:103030008A42F7D310BD000010B503460088012274
:1030400006E000BF33F81240844200D22046521CF2
:103050008A42F7D310BD00000EB5FEF72DF8FFF73A
:10306000E7FDFFF744FDFFF791FB394800240168B5
:1030700041F4800101600068224600F48000009065
:1030800021463820FEF77AF83820FEF769F8FFF776
:103090004BFB314900942F48019408600846FDF726
:1030A00040FD08B172B6FEE72420CDE900040022FD
:1030B00069462948FDF712FD08B172B6FEE7FFF731
:1030C000CBFBFFF7E9FBFFF71DFC23482349FC304E
:1030D000C0E900144FF6FF71C0E902410461846148
:1030E000FEF7FEFE08B172B6FEE71B483C216C30CD
:1030F000FFF74AF81A49802208158DE8070016489C
:10310000184B402218491430FFF772F90220FFF7DC
:10311000DFFA0F20FFF746F9144C4FF47A709FED59
:10312000140BA061C82060806420208051EC100B3B
:1031300000F02CF8C4F82C00FFF744FFFFF72AFF3B
:10314000FFF7C0FCFFF75AFCFFF712FCF4E70000A2
:1031500030380240007400400C1900200044014047
:103160000008024000000240000402402C00002041
:10317000C3F5285C8FC2E53F10B5401A029CE41AE3
:103180006043511A90FBF1F0184410BD21F0004249
:10319000A2F16052B2F5801F01F0004328BFD2F1C6
:1031A0007F6C0BD95FEA001C43EAC20242EB50700D
:1031B00018BF704728BF20F001007047B2F5801F8C
:1031C000BCBF184670474FEA410C1CF5001F02D2E5
:1031D000084600F05FB870B500F009F800000089FB
:1031E000FFF7F6BF4FF00040A0F5800070470EF1EA
:1031F000020E2EF0030E5EF8046B364205D4012A4F
:1032000043EB030515F5001F12D8012841EB010C13
:103210001CF5001F0CD80ED14FEAD17C15F5001F0C
:103220000CEB4C0C0CF1020C08BF4CEBD37C04E013
:103230004FF0080C01E04FEAD37C0CEB4C0526FA6A
:1032400005F606F00706B6F1040C06D20EEB860C66
:10325000BDE870404CF0010C6047DFE80CF0090B52
:1032600002024FF000414FF00000A1F5002170BDB7
:1032700019461046012851EB010418BFD4F500147B
:1032800084BF002001F0004170BD4FF04070E1EEBE
:10329000100A7047FF2141EAD050C0057047000670
:1032A00010160006101600000000000000000102C9
:1032B0000304060708090000D832000800000020B7
:1032C0006C00000000020008443300086C0000207D
:1032D000A42000001C020008010000000000000003
:1032E000000020C052B81EBF000080BF9B0000003D
:1032F000D200000096000000000000000000000066
:1033000000000000000000000000000001000000BC
:10331000010000002C01000000000000000000007F
:10332000000000000000000000000000000000009D
:10333000000000000100000010000000000000007C
:043340000024F40071
:04000005080001C529
:00000001FF
